:040000006AEF01F0B2
:1000080000C015F08CD800C01DF016D0010E166E79
:10001800276A286A1DD0060E165C02E2162A18D036
:100028001650020A02E1030E166E12D01650050A87
:1000380002E1060E166E0CD01D50240AE7E01D5092
:10004800470AE9E01D50500AEBE01D50410AEEE076
:100058001650060A0AE1274A282A290E2724E16EA3
:10006800000E2820E26E1DC0E6FF15C000F011004A
:040078000000120072
:10007C00080E0C6E230E0D6E0D2EFED70C2EFCD71B
:02008C00120060
:0C008E00100E0D6E0D2EFED700001200AB
:10009A00000188BF02D0819401D0818488BD02D03A
:1000AA00819601D0818688BB02D0819801D081884F
:1000BA0088B902D0819A01D0818A7BB002D0818E20
:1000CA0001D0819E818CD3DF819C88B702D0819434
:1000DA0001D0818488B502D0819601D0818688B307
:1000EA0002D0819801D0818888B102D0819A01D04A
:1000FA00818A7BB002D0818E01D0819E818CB7DF4C
:0E010A00819C7BA002D0B5DF01D0BCDF1200CB
:0E011800ACB202D00000FCD788C0ADFF1200D0
:10012600AECF26F0ABA202D0AB98AB8826C000F0CB
:020136001200B5
:1001380010D0800E0001856F1AD0C00E856F17D0C1
:10014800940E856F14D0D40E856F11D0800E856FF4
:100158000ED000018551010AECE08551020AEDE05C
:100168008551030AEDE08551040AEDE0EFD78605D5
:10017800006E8551002600C085F07B8000C088F0A5
:0E01880088DF7B9087C088F084DF7B801200C8
:10019600939C939E939A939893969394819C819E15
:1001A600819481968198819A66DF65DF64DF818814
:1001B600818A818C5EDF819C5EDF818C5ADF819C27
:1001C6005ADF818C56DF819C56DF819A818C51DF04
:1001D600819C51DF818C4DDF819C81988184818C4B
:1001E60048DF819C48DF8194818A818C42DF819C33
:1001F600819A818C3EDF819C3EDF818C3ADF819C37
:10020600818A818C36DF819C36DF819A818C31DF51
:10021600819C818481868188818A818C2ADF819C68
:060226002ADF7B801200BC
:10022C000900F5CFE6FF0006FBE10106F9E112003B
:10023C00180E0001816F010E826F880E836F000E05
:10024C00846F260E7C6E010E7D6E000E7E6E000E8F
:10025C007F6EFF0E226EFF0E236E000E246E000EBC
:10026C00256EFF0E1E6EFF0E1F6E000E206E000E12
:10027C00216EAC8A900EAB6E948E949C9EAA03D089
:08028C00AECF00F0FBD7120019
:0C0294007B9080C088F0FFDE7B801200B1
:1002A0000001876B85C0E9FF86C0EAFFEECF80F0D2
:1002B0008051000A0EE080C088F02EDF0001872BFD
:1002C00087518525E96E000E8621EA6EEECF80F01B
:0402D000EFD7120052
:1002D400166A720E176E650E186E610E196E640E34
:1002E4001A6E790E1B6E1C6A54DFC00EF26E200E5D
:1002F4009D6E190EAF6EAC849FDF020E0B6E860EE0
:100304000C6E990E0D6E0D2EFED70C2EFCD70B2EF7
:10031400FAD7800E946E956AFF0E826E8290170E45
:100324000001856F000E866FB9DF010E856F010E27
:10033400866F37C087F0FEDE0F0E796E000E7A6E80
:10034400800E7A18006E800E005C02E1170E795C54
:100354000CE2290E7924E96E000E7A20EA6EEECFC3
:1003640080F096DF794A7A2AEBD7020E856F010E68
:10037400866F43C087F0DEDE1B0E796E000E7A6E48
:10038400800E7A18006E800E005C02E1240E795C07
:100394000CE2290E7924E96E000E7A20EA6EEECF83
:0E03A40080F076DF794A7A2AEBD7BFD7FFD7F1
:020000040030CA
:0D000100220F0EFF0181FF0FC00FE00F4026
:00000001FF
