:02000000CF2906
:10000800FF00030E83018316C1000A08C2008A019B
:100018008312D10A90308B00831642088A00410E61
:080028008300FF0E7F0E0900AA
:0400300000000800C4
:10003400103083120313FD00FD0B1E28000008007E
:10004400083083120313FC002330FD00FD0B282825
:06005400FC0B2828080047
:10005A0083160313DC1B34288312061236288312F4
:10006A00061683165C1B3C28831286113E288312CF
:10007A0086158316DC1A4428831206114628831231
:10008A00061583165C1A4C28831286104E28831292
:10009A0086146F18522886165328861206171820B7
:1000AA0006138316DC195C28831206125E28831253
:1000BA00061683165C196428831286116628831231
:1000CA0086158316DC186C28831206116E28831293
:1000DA00061583165C1874288312861076288312F4
:1000EA0086146F187A2886167B2886120617182017
:0E00FA0006136F1C8228222083281A2008007B
:1001080083160313D701D901DA011030DB0004305C
:100118005A020318B228F0308312880083165B094C
:100128008800182018200F3083120805F000700886
:100138008316D80070080319AC285908D700580846
:100148000319AA28D80CD813D70AA3280430DA0030
:10015800DB0D5B100430D907DA0A8B285708F0004A
:0201680008008D
:0E016A00831203136E088A006D0882000800DD
:0E017800033083120313FD00FD0BC0280800A6
:10018600831203136F1083165708DC002D206F149B
:0201960008005F
:1001980084207008D3000F3083120805F00003197B
:0E01A800D728BC20CF2883165308F00008008B
:1001B600B5208A110A128000840AED0A0319EE0A94
:0801C600F003031DDB28080013
:1001CE00F928803083160313D3000C29C030D300D6
:1001DE000C299430D3000C29D430D3000C29803054
:1001EE00D3000C29831603135308013A0319E82888
:1001FE005308023A0319ED285308033A0319F0285D
:10020E005308043A0319F328F6285403F000530850
:10021E00F0077008D3007008DC002D206F108316D5
:10022E00D6015608550784000008031927295608D9
:10023E00550784000008D700C3208316D60A182954
:06024E0083126F1408008A
:10025400831603139818302900002A29530883129F
:0402640099000800F5
:1002680083160313061386128610061186110612CA
:100278008312061386120612861106118610222092
:10028800222022200615861406171820061322207D
:1002980006171820061322200617182006132220F6
:1002A8008610061718200613222006171820061392
:1002B80006110616061718200613222006128614A1
:1002C8000617182006138610061718200613222072
:1002D800061718200613861406171820061322205E
:1002E8008610061718200613061686150615861496
:0C02F80006171820061322206F140800BF
:100304009429803083160313D300A729C030D30067
:10031400A7299430D300A729D430D300A72980304B
:10032400D300A729831603135308013A0319832919
:100334005308023A031988295308033A03198B29ED
:100344005308043A03198E2991295403F0005308E1
:10035400F0077008D30083126F1470088316DC0052
:100364002D206F1083165508DC002D206F14080013
:0A037400FF30831603138800080011
:10037E0083160313981690308312980083168717EE
:10038E00071383128C1ECE291A08F000C829080004
:10039E00C42683160313C301C401C501C601C701D8
:1003AE00C801C901CA01CB01CC01CD01CE01CF01DB
:1003BE00D001D1010714061490308B00BA213421DC
:1003CE006730831699001815BF218230FC00DD308E
:1003DE00FD00FD0BF029FC0BF029000000000130A0
:1003EE008316DC002D200C308316DC002D20071820
:1003FE00092A02308316D3000630D4002730D500E8
:10040E00E720FE298316C601C701831680304706F2
:10041E00F00080307002031D162A113046020318B8
:10042E00942D8312071C942D003083164706031D4E
:10043E00222A00304606031D572A0130DC002D20EB
:10044E0001308316D3000130D4002030D500E720D0
:10045E0001308316D3000530D40046082C3E8400AC
:10046E002F300007D500822101308316D3000630CD
:10047E00D4004608013EF00000300318013E470745
:10048E00F10070082C3E84002F300007D500822129
:10049E0002308316D3000130D400A030D500E720FF
:1004AE00003083164706031D5E2A003046060319E8
:1004BE00712A00304706031D662A013046060319CD
:1004CE00712A00304706031D6E2A023046060319B4
:1004DE00712A182B8312071C182B831646082C3EE4
:1004EE0084000008C30046082C3E84000008003A31
:1004FE000319892A46085C3E84000008013A031954
:10050E00892A9A2A8312071C9A2A831646082C3E99
:10051E00D200CC20520884007008800046085C3E51
:10052E00840080017A2A831646082C3E8400000837
:10053E00003A031DB82A00304706031DA82A0030D2
:10054E0046060319B32A00304706031DB02A0130B0
:10055E0046060319B32AB82A46082C3E84004308DF
:10056E00800046082C3E840000080F3A031DD52A51
:10057E0000304706031DC52A003046060319D02A4F
:10058E0000304706031DCD2A013046060319D02A36
:10059E00D52A46082C3E84004308800046082C3E8F
:1005AE00840000080F3A0319EC2A00304706031D99
:1005BE00E22A02304606031DEC2A8312AD012E08F4
:1005CE00AC00AE018316C601C70100304706031DFD
:1005DE00F22A00304606031DFF2A0130D3000530F3
:1005EE00D40046082C3E84002F300007D50082210F
:1005FE00003083164706031D062B01304606031DE9
:10060E00132B0130D3000630D40046082C3E840054
:10061E002F300007D50082218316C60A0319C70A98
:10062E00572A831600304706031D1F2B033046063C
:10063E00031D382B0130DC002D2001308316D30032
:10064E000130D400AD30D500E72001308316D30041
:10065E000530D40046082C3E84002F300007D5000C
:10066E008221003083164706031D3F2B03304606BA
:10067E0003194A2B00304706031D472B043046064C
:10068E0003194A2BDF2B8312071CDF2B8316460818
:10069E002C3E84000008C30046082C3E840000084F
:1006AE00003A0319622B46085C3E84000008013AAA
:1006BE000319622B732B8312071C732B83164608A8
:1006CE002C3ED200CC2052088400700880004608D0
:1006DE005C3E84008001532B831646082C3E84001A
:1006EE000008003A031D882B00304706031D812B9E
:1006FE0003304606031D882B46082C3E8400430813
:10070E00800046082C3E840000080F3A031D9C2BE7
:10071E0000304706031D952B03304606031D9C2B08
:10072E0046082C3E84004308800046082C3E840078
:10073E0000080F3A0319C72B00304706031DA92BDB
:10074E0004304606031DC72B01304602F000003070
:10075E00031C013E4702F10070082C3EF1004608D2
:10076E002C3E84000008F0007108840070088000A0
:10077E0046082C3E840080010330C6000030C700BE
:10078E0000304706031DCD2B03304606031DDA2B22
:10079E000130D3000530D40046082C3E84002F30A3
:1007AE000007D50082218316C60A0319C70A382B03
:1007BE00831600304706031DE62B05304606031D43
:1007CE00FF2B0130DC002D2001308316D3000130C9
:1007DE00D400BA30D500E72001308316D30007309D
:1007EE00D40046082C3E84002F300007D50082210D
:1007FE00003083164706031D062C053046060319E6
:10080E00112C00304706031D0E2C06304606031928
:10081E00112CA62C8312071CA62C831646082C3EE0
:10082E0084000008C30046082C3E84000008003AED
:10083E000319292C46085C3E84000008013A03196E
:10084E00292C3A2C8312071C3A2C831646082C3E70
:10085E00D200CC20520884007008800046085C3E0E
:10086E00840080011A2C831646082C3E8400000852
:10087E00003A031D4F2C00304706031D482C05304F
:10088E004606031D4F2C46082C3E8400430880006C
:10089E0046082C3E840000080F3A031D632C0030DE
:1008AE004706031D5C2C05304606031D632C4608C7
:1008BE002C3E84004308800046082C3E840000082D
:1008CE000F3A03198E2C00304706031D702C06308C
:1008DE004606031D8E2C01304602F0000030031C2C
:1008EE00013E4702F10070082C3EF10046082C3EF6
:1008FE0084000008F000710884007008800046082B
:10090E002C3E840080010530C6000030C700003048
:10091E004706031D942C05304606031DA12C0130FD
:10092E00D3000730D40046082C3E84002F30000739
:10093E00D50082218316C60A0319C70AFF2B831618
:10094E000730C6000030C700831680304706F0001F
:10095E0080307002031DB52C113046020318932D02
:10096E008312071C932D83164608C400C50A013056
:10097E00DC002D2001308316D3000130D400B430BA
:10098E00D500E72001308316D3000330D40045088C
:10099E004402D5002B30D507822101308316D300B7
:1009AE000630D40046082C3E84002F300007D500B8
:1009BE008221003083164706031DE72C44084606A5
:1009CE000319F82C4408013EF100F2010318F20A53
:1009DE0047087206031DF52C710846060319F82CFC
:1009EE00922D8312071C922D831646082C3E8400EE
:1009FE000008C30046082C3E84000008003A031984
:100A0E00102D46085C3E84000008013A0319102D93
:100A1E00212D8312071C212D831646082C3ED20051
:100A2E00CC20520884007008800046085C3E84008A
:100A3E008001012D831646082C3E84000008003AE2
:100A4E00031D362D00304706031D2F2D4408460684
:100A5E00031D362D46082C3E8400430880004608B0
:100A6E002C3E840000080F3A031D4A2D0030470625
:100A7E00031D432D44084606031D4A2D46082C3EF1
:100A8E0084004308800046082C3E840000080F3A7C
:100A9E0003197A2D4408013EF100F2010318F20AFF
:100AAE0047087206031D5D2D71084606031D7A2D3B
:100ABE0001304602F0000030031C013E4702F100F7
:100ACE0070082C3EF10046082C3E84000008F00011
:100ADE00710884007008800046082C3E8400800156
:100AEE004408C600C70100304706031D802D440888
:100AFE004606031D8D2D0130D3000630D400460866
:100B0E002C3E84002F300007D50082218316C60AA2
:100B1E000319C70AE02CAB2C0C2A8316C501D00191
:100B2E00D10180305106F00080307002031DA12DDE
:100B3E00113050020318B02D8312071CB02D8316EE
:100B4E0050085C3E840001308000D00A0319D10A9F
:100B5E00982D83160230D3000130D4005230D500C8
:100B6E00E72001308316D3000130D4004630D50083
:100B7E00E7208316CE01CF0180304F06F000803083
:100B8E007002031DCC2D11304E020318F52D831269
:100B9E000718F52D003083164906031DD82D003099
:100BAE004806031DF52D4E082C3EF10071088400F9
:100BBE000003F000710884007008800000304F06BA
:100BCE00031DEB2D10304E06031DF12D0130C80014
:100BDE000030C900CE0A0319CF0AC32D831207189D
:100BEE000A2E2C08BD002D08BE002F08BF003108AC
:100BFE00C0003308C1003508C2003708C3003908E9
:100C0E00C4003B08C5005108013A031D4E2E831641
:100C1E00CE01CF0180304F06F00080307002031DF0
:100C2E001A2E09304E0203184E2E831207184E2E1E
:100C3E00003083164B06031D262E00304A06031D78
:100C4E004E2E4E083D3E840030300007D3002A2140
:100C5E00003083164F06031D362E08304E06031D38
:100C6E003C2E0130CA000030CB000330FB008A302E
:100C7E00FC005530FD00FD0B422EFC0B422EFB0BF3
:100C8E00422E00000000CE0A0319CF0A112E092AA7
:020C9E004F2ED7
:100D8800203084004D3083120313F0005530ED00FD
:100D98000630EE00DB20A0308400213083120313DC
:0E0DA800F000A230ED000630EE00DB20080067
:0E0CAA0042344E342E343A3474346F340034F5
:0A0CB80020343A3450342034003464
:100CC2000034003400340034003400340034003482
:100CD2000034003400340034003400340034003472
:020CE2000034DC
:100CE4000034003400340034003400340034003460
:020CF4000034CA
:100CF600743469346D346534203469347334203483
:060D060075347034003466
:020D0C000034B1
:100D0E0047344F344F34443420344C345534433408
:040D1E004B3400341E
:100D22000034003400340034003400340034003421
:100D32000034003400340034003400340034003411
:020D420000347B
:100D440065346E3474347234203474346E347334D1
:0A0D540026346F346E34733400341B
:0E0D5E007334653463343A346F342034003417
:0C0D6C0051342034203420343A34003458
:0E0D78006D346F34643465346C343A340034B6
:02400E004A2F37
:00000001FF
