:020000000329D2
:0E000600213083120313FD00FD0B07280800B4
:100014000F3083120313FC004730FD00FD0B102842
:0A002400FC0B10280000000008008B
:06002E00000000000800C4
:1000340083120313B01B2028061121280615301B38
:100044002528861126288615B01A2A2806122B2858
:100054000616301A2F2886123028861628183428B7
:10006400861735288613061717200613B0193C285F
:1000740006113D2806153019412886114228861597
:10008400B018462806124728061630184B28861240
:100094004C288616281850288617512886130617C8
:1000A40017200613281C58280A2059280320080062
:0E00B4008312031327088A0026088200080022
:1000C2008312031328102F08B0001A2028140800E6
:1000D200831603130613861386120612861106115F
:1000E20083120613861306118611061286120A203F
:1000F2000A200A20061686160617172006130A205B
:100102000617172006130A200617172006130A20BF
:1001120086120617172006130A2006171720061341
:10012200061206150617172006130A200611861650
:1001320006171720061386120617172006130A2021
:1001420006171720061386160617172006130A200D
:10015200861206171720061306158615061686162A
:0C0162000617172006130A2028140800B6
:10016E00C928803083120313AB00DC28C030AB00EB
:10017E00DC289430AB00DC28D430AB00DC28803097
:10018E00AB00DC28831203132B08013A0319B8289D
:10019E002B08023A0319BD282B08033A0319C0286D
:1001AE002B08043A0319C328C6282C03F0002B0889
:1001BE00F0077008AB007008B0001A202810AE01CE
:1001CE002E082D07840000080319F5282E082D0788
:1001DE0084000008AF006120AE0AE728281408004A
:1001EE005A208A110A128000840AA60A0319A70A45
:0801FE00F003031DF7280800BF
:10020600683083120313A0006530A1006C30A20091
:100216006C30A3006F30A400A50169200130AB004B
:100226000130AC002030AD00B7208801831688016C
:100236008312A901AA0180302A06F00080307002DC
:10024600031D2729C83029020318482988160817CC
:10025600881708140430FC00E430FD00FD0B31293A
:10026600FC0B31290000881208138813081031305E
:10027600FC000B30FD00FD0B3E29FC0B3E29000067
:100286000000A90A0319AA0A1E290B30FB00263012
:10029600FC005D30FD00FD0B4E29FC0B4E29FB0BCF
:1002A6004E2900000000A901AA0180302A06F000AC
:1002B60080307002031D6129C83029020318822983
:1002C60088160817881708140630FC003030FD0021
:1002D600FD0B6B29FC0B6B29000088120813881391
:1002E60008102F30FC00BF30FD00FD0B7829FC0BF9
:1002F600782900000000A90A0319AA0A58290B3018
:10030600FB002630FC005D30FD00FD0B8829FC0B50
:100316008829FB0B882900000000A901AA0180306A
:100326002A06F00080307002031D9B29C83029027E
:100336000318BC2988160817881708140330FC0010
:100346009730FD00FD0BA529FC0BA5290000000038
:1003560088120813881308103230FC005830FD004C
:10036600FD0BB329FC0BB3290000A90A0319AA0A3D
:1003760092290B30FB002630FC005D30FD00FD0BA2
:10038600C229FC0BC229FB0BC229000000001B2955
:02039600CB2971
:02400E004A2F37
:00000001FF
