:02000000E529F0
:0400060000000800EE
:10000A00103083120313FD00FD0B092800000800BD
:10001A00083083120313FC002330FD00FD0B132864
:06002A00FC0B1328080086
:1000300083120313C71B1E2888111F288815471B0E
:100040002328081124280815C71A282888102928C9
:100050008814471A2D2808102E2808143118322821
:10006000081633280812881603208812C7193A2860
:1000700088113B28881547193F2808114028081582
:10008000C71844288810452888144718492808109C
:100090004A28081431184E2808164F2808128816C6
:1000A00003208812311C56280D20572805200800EF
:1000B000710DF80DF90D7408F8027508031C750F21
:1000C000F902F00DF10D0F30FC00710DF80DF90D76
:1000D0007408701C7128F8027508031C750FF9026A
:1000E0007628F80775080318750FF907F00DF10D5C
:1000F000FC0B6528701882287408F8077508031827
:08010000750FF907000008006B
:100108008312031331104608C70018203114080061
:0E0118008312031330088A002F0882000800AB
:10012600A528803083120313C200B828C030C2004D
:10013600B8289430C200B828D430C200B82880301D
:10014600C200B828831203134208013A03199428FF
:100156004208023A031999284208033A03199C28CF
:100166004208043A03199F28A2284303F0004208D4
:10017600F0077008C2007008C70018203110C501CA
:1001860045084407840000080319D1284508440798
:1001960084000008C6008420C50AC328311408005C
:1001A600831603139818D9280000D328831242080F
:0401B60099000800A4
:1001BA00EF28803083120313C2000229C030C20024
:1001CA0002299430C2000229D430C20002298030A8
:1001DA00C2000229831203134208013A0319DE28D6
:1001EA004208023A0319E3284208033A0319E628A7
:1001FA004208043A0319E928EC284303F0004208AC
:10020A00F0077008C20031147008C70018203110B6
:0A021A004408C70018203114080042
:100224008316031398169030831298008316871749
:10023400071383128C1E21291A08F0001B290800B9
:10024400831203137408003A031D31297508003A18
:10025400031D3129FF30F0007F30F10008008312C4
:100264000313FD01F901F801710870040319003446
:1002740071087506FA00FA1BFD09FB01F51F4729F1
:10028400F409F509F40A0319F50AF11F4E29F009D6
:10029400F109F00A0319F10A71087504FA00FA1B4E
:1002A400632958207B187629FD1F0034F009F109D1
:1002B400F00A0319F10AF809F909F80A0319F90A05
:1002C4000034F51F7229F11B6E297108F9007008BA
:1002D400F800F101F0015629F101F001F00A0034AF
:1002E400F109F009FB0A5329F80A0319F90A7408F9
:1002F4007802031D562975087902031D5629F90150
:10030400F801F00A0319F10AF11F56290000FF341D
:020314000800DF
:100316008316031388120812081088100811881112
:1003260083128812081288110811881008100D20EF
:100336000D200D20881408148816032088120D201D
:100346008816032088120D208816032088120D2097
:1003560008108816032088120D208816032088129C
:10036600881088158816032088120D208811081415
:1003760088160320881208108816032088120D207C
:1003860088160320881208148816032088120D2068
:100396000810881603208812881508158814081472
:0C03A6008816032088120D203114080076
:1003B2008C208A110A128000840AAF0A0319B00A3B
:0803C200F003031DD929080016
:1003CA00423083120313A0006530A1002030A2003E
:1003DA005230A3006530A4006130A5006430A60045
:1003EA005930A7002030A8003A30A9005030AA009E
:1003FA002030AB00AC013A30AD00AE01B801B90112
:10040A00BA01BB010130BC000030BD00BE01BF0112
:10041A000130C0000030C1008316880183128801B0
:10042A00831607148714FF30860067309900181561
:10043A0012218230FC00DD30FD00FD0B222AFC0B6C
:10044A00222A000000008B210130C70018200C303E
:10045A00C70018200718392A0230C2000330C30027
:10046A002030C40093202F2A0130C7001820071C0F
:10047A00432A08170130BA000030BB0000303B069F
:10048A00031D492A01303A06031DDC2A00303D06C5
:10049A00031D512A00303C06031D5C2A00303F062A
:1004AA00031D592A00303E06031D5C2ADC2A00304F
:1004BA003F06031D622A00303E06031D6C2A0130E6
:1004CA00BC02031CBD033C30BE000030BF0001303B
:1004DA00BE02031CBF030A30F4000030F5003C08DA
:1004EA00F0003D08F10022213030F0077008B40016
:1004FA000A30F4000030F5003C08F0003D08F10035
:10050A0022217808F0007908F10030307007B50030
:10051A000A30F4000030F5003E08F0003F08F10010
:10052A0022213030F0077008B6000A30F40000309B
:10053A00F5003E08F0003F08F10022217808F0009B
:10054A007908F10030307007B7000630FB0013302D
:10055A00FC00AD30FD00FD0BB02AFC0BB02AFB0BF2
:10056A00B02A000000000130C2000130C300340884
:10057A00C400DD200130C2000230C3003508C400C7
:10058A00DD200130C2000330C3002D30C4009320A7
:10059A000130C2000430C3003608C400DD20013037
:1005AA00C2000530C3003708C400DD204B2ABA0157
:1005BA00BB0108138817B201B301871CFC2A00305B
:1005CA003306031DEA2A003032060319F82A3030AE
:1005DA000607C200D3200230C200320AC3003030FC
:1005EA000607C400DD20B20A0319B30AE22AE02A88
:0205FA00FD2AD8
:02400E004A2F37
:00000001FF
