:0200000058297D
:0400060000000800EE
:10000A00083083120313FC002330FD00FD0B0B287C
:06001A00FC0B0B2808009E
:10002000103083120313FD00FD0B1428000008009C
:1000300083120313BF1B1E2887111F2887153F1B20
:100040002328071124280715BF1A282887102928D4
:1000500087143F1A2D2807102E2807142718322836
:10006000071633280712871603208712BF193A286C
:1000700087113B2887153F193F280711402807158E
:10008000BF1844288710452887143F1849280710AF
:100090004A28071427184E2807164F2807128716D4
:1000A00003208712271C56280520572810200800F7
:1000B0008312031327103E08BF00182027140800DE
:0E00C000831203132A088A0029088200080010
:1000CE00831203131A08A800981C6F28181218160A
:0600DE002808F0000800F4
:1000E4008428803083120313BA009728C030BA00E2
:1000F40097289430BA009728D430BA0097288030D3
:10010400BA009728831203133A08013A0319732893
:100114003A08023A031978283A08033A03197B2863
:100124003A08043A03197E2881283B03F0003A0870
:10013400F0077008BA007008BF0018202710BD012E
:100144003D083C07840000080319B0283D083C071B
:1001540084000008BE005820BD0AA2282714080005
:10016400831603139816903083129800831687170A
:10017400071383128C1EC1281A08F000BB2808003C
:1001840060208A110A128000840AA90A0319AA0AA3
:08019400F003031DC22808005E
:0E019C000030831203138C1A0130F0000800AB
:1001AA008316031387120712071087100711871186
:1001BA00831287120712871107118710071005206B
:1001CA0005200520871407148716032087120520A7
:1001DA008716032087120520871603208712052019
:1001EA000710871603208712052087160320871217
:1001FA008710871587160320871205208711071491
:10020A0087160320871207108716032087120520F6
:10021A0087160320871207148716032087120520E2
:10022A0007108716032087128715071587140714E6
:0C023A00871603208712052027140800F7
:100246003529803083120313BA004829C030BA001A
:1002560048299430BA004829D430BA004829803059
:10026600BA004829831203133A08013A03192429CC
:100276003A08023A031929293A08033A03192C299C
:100286003A08043A03192F2932293B03F0003A08A9
:10029600F0077008BA0027147008BF00182027104E
:0A02A6003C08BF00182027140800D0
:1002B000483083120313A0006530A1006C30A20007
:1002C0006C30A3006F30A4002130A500A601AD0161
:1002D000AE01AF01B001B101B201B301B401B5018A
:1002E000B601B701B801B9018316880183128801EC
:1002F000831606128612861783128601D520673070
:10030000831699001815B2208230FC00DD30FD0004
:10031000FD0B8829FC0B882900000000861B98290A
:100320000130BA000330BB002030BC0072208E299F
:10033000861FBF2906160612AB01AC0180302C06C1
:10034000F00080307002031DA72909302B0203182A
:10035000BD29CE207008013A031DBD2986166720ED
:10036000700888000230BA000330BB000808BC00E7
:100370002321AB0A0319AC0A9E2986129829BF29AA
:02400E004A2F37
:00000001FF
