:02000000842951
:10000800FF00030E8301AA000A08AD008A017008E8
:10001800A0000408A1001F217008AB00AC0137281C
:100028000130A500A201A3015F28063025020318AC
:100038001F28A50A5F282508023A031D2528033032
:10004800A5005F282508053A031D2C280630A500C1
:100058005F282508063A031D3628083024020318AD
:100068003628A40A5F2800302C06031D3D282430BA
:100078002B060319142800302C06031D4528473089
:100088002B060319192800302C06031D4D28503063
:100098002B0603191F2800302C06031D5528413054
:1000A8002B060319262800302C06031D5D282C304A
:1000B8002B0603192D282508063A031D6B28A20ACA
:1000C8000319A30A2208A03E84002B0880002008F8
:1000D800F000210884002D088A002A0E8300FF0EF4
:0400E8007F0E09007E
:1000EC00103083120313FD00FD0B7A28000008006A
:1000FC00083083120313FC002330FD00FD0B842811
:06010C00FC0B8428080032
:0401120000000800E1
:0E0116008312031327088A00260882000800BF
:1001240083120313B21B9828061099280614321B55
:100134009D2886109E288614B21AA2280611A32888
:100144000615321AA7288611A82886152918AC285E
:100154008616AD288612061689200612B219B4280E
:100164000610B52806143219B9288610BA28861440
:10017400B218BE280611BF2806153218C3288611E6
:10018400C42886152918C8288616C9288612061672
:1001940089200612291CD0287E20D1287620080028
:1001A4008312031329102F08B20092202914080087
:1001B400EC28803083120313AF00FF28C030AF0057
:1001C400FF289430AF00FF28D430AF00FF288030E0
:1001D400AF00FF28831203132F08013A0319DB2809
:1001E4002F08023A0319E0282F08033A0319E328D9
:1001F4002F08043A0319E628E9283003F0002F08F1
:10020400F0077008AF0029147008B200922029107A
:0A0214003108B200922029140800FE
:10021E00831603139816903083129800831687174F
:10022E00071383128C1E1E291A08F00018290800C5
:10023E00831203131A08A800981C272918121816DF
:06024E002808F000080082
:1002540083160313061286128611061186100610E1
:1002640083120612861206108610061186117E204D
:100274007E207E20061586150616892006127E200D
:100284000616892006127E200616892006127E2074
:1002940086110616892006127E200616892006126B
:1002A400061106140616892006127E2006108615ED
:1002B40006168920061286110616892006127E204B
:1002C40006168920061286150616892006127E2037
:1002D400861106168920061206148614061586153C
:0C02E4000616892006127E20291408004E
:1002F0008B208A110A128000840AA60A0319A70A11
:08030000F003031D7829080039
:1003080083120313A201A301A401A5012A21C0306D
:100318008B00243083168C001930990018150F2192
:100328000230FB008630FC009930FD00FD0B9A2955
:10033800FC0B9A29FB0B9A290C30B20092208030D2
:1003480083168700FF308312870007110130AF0042
:100358000130B00083162E088312B100DA200F3066
:10036800AE0017302E020318C1292E08A03E8400C3
:100378000008AF00D220AE0AB5290230AF00013024
:10038800B00083163A088312B100DA201B30AE00A1
:1003980024302E020318D8292E08A03E8400000815
:0C03A800AF00D220AE0ACC29AA29D92926
:02400E004A2F37
:00000001FF
