:020000008E2947
:10000800FF00030E8301CF000A08CE008A017008A2
:10001800A0000408A1006D217008CA00CB01372890
:100028000130A200A301A4015F28063022020318B0
:100038001F28A20A5F282208023A031D2528033038
:10004800A2005F282208053A031D2C280630A200CA
:100058005F282208063A031D3628083025020318AF
:100068003628A50A5F2800304B06031D3D2824309A
:100078004A060319142800304B06031D452847304B
:100088004A060319192800304B06031D4D28503025
:100098004A0603191F2800304B06031D5528413016
:1000A8004A060319262800304B06031D5D282C300C
:1000B8004A0603192D282208063A031D6B28A30AAD
:1000C8000319A40A2308A03E84004A0880002008D7
:1000D800F000210884004E088A004F0E8300FF0EAE
:0400E8007F0E09007E
:1000EC00103083120313FD00FD0B7A28000008006A
:1000FC00083083120313FC002330FD00FD0B842811
:06010C00FC0B8428080032
:0401120000000800E1
:1001160083120313D41B9128061092280614541B2D
:100126009628861097288614D41A9B2806119C2890
:100136000615541AA0288611A12886154D18A5283B
:100146008616A6288612061689200612D419AD2808
:100156000610AE2806145419B2288610B328861441
:10016600D418B7280611B82806155418BC288611C5
:10017600BD2886154D18C1288616C2288612061671
:10018600892006124D1CC9287E20CA287620080020
:0E0196008312031349088A00480882000800FB
:1001A4008316031306128612861106118610061092
:1001B40083120612861206108610061186117E20FE
:1001C4007E207E20061586150616892006127E20BE
:1001D4000616892006127E200616892006127E2025
:1001E40086110616892006127E200616892006121C
:1001F400061106140616892006127E20061086159E
:1002040006168920061286110616892006127E20FB
:1002140006168920061286150616892006127E20E7
:1002240086110616892006120614861406158615EC
:0C0234000616892006127E204D140800DA
:10024000831203134D105108D4008B204D14080065
:100250003A29803083120313D1004D29C030D100D8
:100260004D299430D1004D29D430D1004D29803012
:10027000D1004D29831203135108013A031929298A
:100280005108023A03192E295108033A031931295A
:100290005108043A0319342937295203F000510850
:1002A000F0077008D1004D147008D4008B204D1059
:0A02B0005308D4008B204D14080001
:1002BA0083160313981690308312980083168717B3
:1002CA00071383128C1E6C291A08F000662908008D
:1002DA00831203131A08CC00981C752918121816D1
:0602EA004C08F0000800C2
:1002F0008316031398187E29000078298312510869
:040300009900080058
:10030400CB208A110A128000840AC80A0319C90A78
:08031400F003031D822908001B
:10031C00A022D220C0308B00243083168C001930E0
:10032C00990018155D210230FB008630FC009930D5
:10033C00FD00FD0B9F29FC0B9F29FB0B9F290C300B
:10034C00D4008B20803083168700FF308312870007
:10035C0007100711023083169F000130890001300D
:10036C008312D1000130D20083162E088312D300E1
:10037C0028210F30D000173050020318CD29500817
:10038C00A03E84000008D1002021D00AC1290230EF
:10039C00D1000130D20083163A088312D3002821F1
:1003AC001B30D000243050020318E4295008A03E22
:1003BC0084000008D1002021D00AD8290918732AFA
:1003CC00A601A7018030F000803027067002031DC3
:1003DC00F1292608093C031C0A2A2608283E840019
:1003EC000008D10078210230FB000430FC00BA3048
:1003FC00FD00FD0BFF29FC0BFF29FB0BFF29000067
:10040C00A60A0319A70AE829A601A7018030F00063
:10041C00803027067002031D152A2608153C031C84
:10042C002E2A2608323E84000008D10078210230A2
:10043C00FB000430FC00BA30FD00FD0B232AFC0B42
:10044C00232AFB0B232A0000A60A0319A70A0C2A4D
:10045C000E30D000173050020318492A5008A03E25
:10046C0084000008D10078210230FB000430FC002D
:10047C00BA30FD00FD0B402AFC0B402AFB0B402A36
:10048C000000D00A302A1A30D00024305002031851
:10049C00642A5008A03E84000008D1007821023064
:1004AC00FB000430FC00BA30FD00FD0B5B2AFC0B9A
:1004BC005B2AFB0B5B2A0000D00A4B2A0230FB00A4
:1004CC008630FC009930FD00FD0B6A2AFC0B6A2A71
:0E04DC00FB0B6A2A1A30D1007821B529742A48
:1005400022308400263083120313F0007A30C80072
:080550000230C90082210800FD
:0204F4000034D2
:0404F600003400349A
:0204FA000034CC
:0404FC000034003494
:10050000613474342B3463346D34673466343D3471
:0405100031340D3441
:10051400613474342B3463346D34673473343D3450
:1005240022343034313431343434373437343134A0
:0C053400323431343534323422340D348A
:02400E004A2F37
:00000001FF
