:0400000095EF01F087
:1000080000C017F00CC016F00DC015F0E5D800C000
:1000180027F078D0206A216A800E2118006E800EA1
:10002800005C02E1140E205C1DE2838A838C838EBF
:100038008380020E0C6EF10E0D6E0D2EFED70C2E67
:10004800FCD700000000839A839C839E8390190E3E
:100058000C6E050E0D6E0D2EFED70C2EFCD7204A09
:10006800212ADAD758D0206A216A800E2118006E1A
:10007800800E005C02E1140E205C1DE2838A838CF2
:10008800838E8380040E0C6E0B0E0D6E0D2EFED724
:100098000C2EFCD700000000839A839C839E8390DB
:1000A800170E0C6EEB0E0D6E0D2EFED70C2EFCD718
:1000B800204A212ADAD72FD0206A216A800E2118F7
:1000C800006E800E005C02E1140E205C1AE2838A46
:1000D800838C838E8380D80E0D6E0D2EFED7000084
:1000E800839A839C839E83901A0E0C6E1F0E0D6E4E
:1000F8000D2EFED70C2EFCD700000000204A212A26
:10010800DDD709D027506B0A85E02750780AABE085
:1001180027506F0AD1E0010E186E000E196E17C035
:0C01280000F016C00CF015C00DF0110026
:10013400080E0C6E230E0D6E0D2EFED70C2EFCD762
:020144001200A7
:0401460000001200A3
:0C014A00100E0D6E0D2EFED700001200EE
:1001560039BE02D0819401D0818439BC02D0819607
:1001660001D0818639BA02D0819801D0818839B808
:1001760002D0819A01D0818A28B002D0818E01D026
:10018600819E818CDDDF819C39B602D0819401D0BD
:10019600818439B402D0819601D0818639B202D0E9
:1001A600819801D0818839B002D0819A01D0818AA4
:1001B60028B002D0818E01D0819E818CC1DF819CC6
:0C01C60028A002D0B4DF01D0BDDF120081
:0E01D200ACB202D00000FCD739C0ADFF120065
:1001E000AECF26F0ABA202D0AB98AB8826C000F011
:0201F0001200FB
:1001F200939C939E939A939893969394819C819EB9
:10020200819481968198819A94DF93DF92DF81882D
:10021200818A818C97DF819C8CDF818C93DF819C2A
:1002220088DF818C8FDF819C84DF819A818C8ADFD9
:10023200819C7FDF818C86DF819C81988184818C87
:1002420081DF819C76DF8194818A818C7BDF819C36
:10025200819A818C77DF819C6CDF818C73DF819C3A
:10026200818A818C6FDF819C64DF819A818C6ADF55
:10027200819C818481868188818A818C63DF819CD3
:0602820058DF2880120085
:100288000900F5CFE6FF0006FBE10106F9E11200DF
:10029800D20E316E010E326E390E336E000E346E90
:1002A800E00E2D6E010E2E6E000E2F6E000E306EBB
:1002B800FF0E296EFF0E2A6E000E2B6E000E2C6E9E
:1002C800FF0E226EFF0E236E000E246E000E256EAA
:1002D800AC8A900EAB6E948E949C9EAA03D0AECF3F
:0602E80000F0FBD712003C
:0C02EE00289035C039F030DF2880120065
:1002FA00386A35C0E9FF36C0EAFFEECF37F037502B
:10030A00000A0DE037C039F05FDF382A385035244B
:10031A00E96E000E3620EA6EEECF37F0F0D7120003
:10032A00186A196A720E1A6E650E1B6E610E1C6EC1
:10033A00640E1D6E790E1E6E1F6A56DFC00EF26EB7
:10034A00200E9D6E190EAF6EAC84A1DF020E0B6EED
:10035A00860E0C6E990E0D6E0D2EFED70C2EFCD746
:10036A000B2EFAD7800E946EFF0E826E82928294C2
:10037A00956A1A0E356E000E366EBADF000E19181F
:10038A0002E1010E181805E127C035F0ABDF186A43
:06039A00196AF4D7FFD739
:020000040030CA
:0D000100220F0EFF0181FF0FC00FE00F4026
:00000001FF
