:10000000F3EF00F00000000000EF00F0000000003F
:0A0010000000000000000000F3D71C
:04001C0000001200CE
:10002000080E0C6E230E0D6E0D2EFED70C2EFCD777
:020030001200BC
:0C003200100E0D6E0D2EFED70000120007
:10003E0024BE02D0819401D0818424BC02D081964A
:10004E0001D0818624BA02D0819801D0818824B84B
:10005E0002D0819A01D0818A1BB002D0818E01D04C
:10006E00819E818CD4DF819C24B602D0819401D0F4
:10007E00818424B402D0819601D0818624B202D02C
:10008E00819801D0818824B002D0819A01D0818AD2
:10009E001BB002D0818E01D0819E818CB8DF819CF5
:0C00AE001BA002D0B6DF01D0BDDF1200A5
:0C00BA001B9023C024F0BEDF1B8012004E
:1000C6000900F5CFE6FF0006FBE10106F9E11200A3
:1000D600939C939E939A939893969394819C819ED6
:1000E600819481968198819A98DF97DF96DF81883F
:1000F600818A818C90DF819C90DF818C8CDF819C52
:100106008CDF818C88DF819C88DF819A818C83DFFC
:10011600819C83DF818C7FDF819C81988184818CA7
:100126007ADF819C7ADF8194818A818C74DF819C5D
:10013600819A818C70DF819C70DF818C6CDF819C61
:10014600818A818C68DF819C68DF819A818C63DF7C
:10015600819C818481868188818A818C5CDF819CF7
:060166005CDF1B801200AB
:10016C000FD0800E1E6E19D0C00E1E6E16D0940EBF
:10017C001E6E13D0D40E1E6E10D0800E1E6E0DD0BF
:10018C001E50010AEEE01E50020AEEE01E50030A59
:10019C00EEE01E50040AEEE0F0D71F04006E1E5075
:1001AC00002600C01EF000C024F043DF1B90226A22
:1001BC0022502024E96E000E2120EA6EEE520BE054
:1001CC0022502024E96E000E2120EA6EEECF23F09F
:0A01DC006EDF222AEDD71B8012000F
:1001E600680E156E650E166E6C0E176E6C0E186E1A
:1001F6006F0E196E1A6A6CDF010E1E6E010E1F6EEF
:10020600150E206E000E216EAEDF836A956A1C6A9B
:100216001D6A800E1D18006E800E005C02E1C80E7D
:100226001C5C1DE2838A838C838E8380020E0C6E97
:10023600F10E0D6E0D2EFED70C2EFCD70000000021
:10024600839A839C839E8390190E0C6E050E0D6E09
:100256000D2EFED70C2EFCD71C4A1D2ADAD7060E09
:100266000B6E130E0C6EAD0E0D6E0D2EFED70C2EF4
:10027600FCD70B2EFAD7000000001C6A1D6A800E00
:100286001D18006E800E005C02E1C80E1C5C1DE2AB
:10029600838A838C838E8380030E0C6E970E0D6E7D
:1002A6000D2EFED70C2EFCD700000000839A839CEF
:1002B600839E8390180E0C6E5F0E0D6E0D2EFED76C
:1002C6000C2EFCD71C4A1D2ADAD7060E0B6E130E0F
:1002D6000C6EAD0E0D6E0D2EFED70C2EFCD70B2E12
:1002E600FAD7000000001C6A1D6A800E1D18006EF9
:1002F600800E005C02E1C80E1C5C1DE2838A838CC2
:10030600838E8380020E0C6E4B0E0D6E0D2EFED765
:100316000C2EFCD7839A839C839E8390190E0C6EB9
:10032600AB0E0D6E0D2EFED70C2EFCD70000000076
:100336001C4A1D2ADAD7060E0B6E130E0C6EAD0E76
:100346000D6E0D2EFED70C2EFCD70B2EFAD7000005
:0603560000005DD7FFD797
:020000040030CA
:0D000100220F0EFF0181FF0FC00FE00F4026
:00000001FF
